{
  "_format": "hh3-artifact-1",
  "contractName": "Receiver",
  "sourceName": "contracts/Receiver.sol",
  "abi": [
    {
      "inputs": [],
      "name": "EnforcedPause",
      "type": "error"
    },
    {
      "inputs": [],
      "name": "ExpectedPause",
      "type": "error"
    },
    {
      "inputs": [],
      "name": "InvalidFee",
      "type": "error"
    },
    {
      "inputs": [],
      "name": "InvalidInitialization",
      "type": "error"
    },
    {
      "inputs": [],
      "name": "NetTooSmall",
      "type": "error"
    },
    {
      "inputs": [],
      "name": "NotInitializing",
      "type": "error"
    },
    {
      "inputs": [],
      "name": "NothingToSettle",
      "type": "error"
    },
    {
      "inputs": [
        {
          "internalType": "address",
          "name": "owner",
          "type": "address"
        }
      ],
      "name": "OwnableInvalidOwner",
      "type": "error"
    },
    {
      "inputs": [
        {
          "internalType": "address",
          "name": "account",
          "type": "address"
        }
      ],
      "name": "OwnableUnauthorizedAccount",
      "type": "error"
    },
    {
      "inputs": [],
      "name": "ReentrancyGuardReentrantCall",
      "type": "error"
    },
    {
      "inputs": [
        {
          "internalType": "address",
          "name": "token",
          "type": "address"
        }
      ],
      "name": "SafeERC20FailedOperation",
      "type": "error"
    },
    {
      "anonymous": false,
      "inputs": [
        {
          "indexed": false,
          "internalType": "uint64",
          "name": "version",
          "type": "uint64"
        }
      ],
      "name": "Initialized",
      "type": "event"
    },
    {
      "anonymous": false,
      "inputs": [
        {
          "indexed": true,
          "internalType": "address",
          "name": "previousOwner",
          "type": "address"
        },
        {
          "indexed": true,
          "internalType": "address",
          "name": "newOwner",
          "type": "address"
        }
      ],
      "name": "OwnershipTransferred",
      "type": "event"
    },
    {
      "anonymous": false,
      "inputs": [
        {
          "indexed": false,
          "internalType": "address",
          "name": "account",
          "type": "address"
        }
      ],
      "name": "Paused",
      "type": "event"
    },
    {
      "anonymous": false,
      "inputs": [
        {
          "indexed": false,
          "internalType": "address",
          "name": "account",
          "type": "address"
        }
      ],
      "name": "Unpaused",
      "type": "event"
    },
    {
      "inputs": [],
      "name": "USDC",
      "outputs": [
        {
          "internalType": "contract IERC20",
          "name": "",
          "type": "address"
        }
      ],
      "stateMutability": "view",
      "type": "function"
    },
    {
      "inputs": [],
      "name": "destDomain",
      "outputs": [
        {
          "internalType": "uint32",
          "name": "",
          "type": "uint32"
        }
      ],
      "stateMutability": "view",
      "type": "function"
    },
    {
      "inputs": [],
      "name": "destRecipient",
      "outputs": [
        {
          "internalType": "bytes32",
          "name": "",
          "type": "bytes32"
        }
      ],
      "stateMutability": "view",
      "type": "function"
    },
    {
      "inputs": [],
      "name": "feeController",
      "outputs": [
        {
          "internalType": "contract IFeeController",
          "name": "",
          "type": "address"
        }
      ],
      "stateMutability": "view",
      "type": "function"
    },
    {
      "inputs": [
        {
          "internalType": "address",
          "name": "owner_",
          "type": "address"
        },
        {
          "internalType": "address",
          "name": "usdc",
          "type": "address"
        },
        {
          "internalType": "address",
          "name": "cctpMessenger",
          "type": "address"
        },
        {
          "internalType": "uint32",
          "name": "_destDomain",
          "type": "uint32"
        },
        {
          "internalType": "bytes32",
          "name": "_destRecipient",
          "type": "bytes32"
        },
        {
          "internalType": "address",
          "name": "_feeController",
          "type": "address"
        }
      ],
      "name": "initialize",
      "outputs": [],
      "stateMutability": "nonpayable",
      "type": "function"
    },
    {
      "inputs": [],
      "name": "owner",
      "outputs": [
        {
          "internalType": "address",
          "name": "",
          "type": "address"
        }
      ],
      "stateMutability": "view",
      "type": "function"
    },
    {
      "inputs": [],
      "name": "paused",
      "outputs": [
        {
          "internalType": "bool",
          "name": "",
          "type": "bool"
        }
      ],
      "stateMutability": "view",
      "type": "function"
    },
    {
      "inputs": [],
      "name": "renounceOwnership",
      "outputs": [],
      "stateMutability": "nonpayable",
      "type": "function"
    },
    {
      "inputs": [
        {
          "internalType": "address",
          "name": "token",
          "type": "address"
        },
        {
          "internalType": "address",
          "name": "to",
          "type": "address"
        },
        {
          "internalType": "uint256",
          "name": "amt",
          "type": "uint256"
        }
      ],
      "name": "rescueToken",
      "outputs": [],
      "stateMutability": "nonpayable",
      "type": "function"
    },
    {
      "inputs": [
        {
          "internalType": "address",
          "name": "newRecipient",
          "type": "address"
        }
      ],
      "name": "setDestRecipientAddress",
      "outputs": [],
      "stateMutability": "nonpayable",
      "type": "function"
    },
    {
      "inputs": [],
      "name": "settle",
      "outputs": [],
      "stateMutability": "nonpayable",
      "type": "function"
    },
    {
      "inputs": [],
      "name": "tokenMessenger",
      "outputs": [
        {
          "internalType": "contract ITokenMessenger",
          "name": "",
          "type": "address"
        }
      ],
      "stateMutability": "view",
      "type": "function"
    },
    {
      "inputs": [
        {
          "internalType": "address",
          "name": "newOwner",
          "type": "address"
        }
      ],
      "name": "transferOwnership",
      "outputs": [],
      "stateMutability": "nonpayable",
      "type": "function"
    }
  ],
  "bytecode": "0x6080604052348015600e575f5ffd5b50610d548061001c5f395ff3fe608060405234801561000f575f5ffd5b50600436106100cb575f3560e01c8063715018a6116100885780638da5cb5b116100635780638da5cb5b146101c1578063e5711e8b146101c9578063f2fde38b146101dc578063f590fb5c146101ef575f5ffd5b8063715018a614610190578063747819a31461019857806389a30271146101af575f5ffd5b806311da60b4146100cf57806321021ee9146100d9578063461178301461010a5780635c975abb146101355780635cc663bf1461016a5780636999b3771461017d575b5f5ffd5b6100d7610202565b005b6001546100f090600160a01b900463ffffffff1681565b60405163ffffffff90911681526020015b60405180910390f35b60015461011d906001600160a01b031681565b6040516001600160a01b039091168152602001610101565b7fcd5ed15c6e187e77e9aee88184c21f4f2182ab5827cb3b7e07fbedcd63f033005460ff166040519015158152602001610101565b6100d7610178366004610bb0565b61047e565b60025461011d906001600160a01b031681565b6100d761079f565b6101a160035481565b604051908152602001610101565b5f5461011d906001600160a01b031681565b61011d6107b0565b6100d76101d7366004610c2d565b6107de565b6100d76101ea366004610c6b565b610846565b6100d76101fd366004610c6b565b610883565b61020a6108e2565b61021261092c565b5f80546040516370a0823160e01b81523060048201526001600160a01b03909116906370a0823190602401602060405180830381865afa158015610258573d5f5f3e3d5ffd5b505050506040513d601f19601f8201168201806040525081019061027c9190610c8d565b9050805f0361029e57604051630c30209d60e31b815260040160405180910390fd5b6002545f908190819081906001600160a01b0316632d6232786102bf6107b0565b6040516001600160e01b031960e084901b1681526001600160a01b03909116600482015260248101889052604401608060405180830381865afa158015610308573d5f5f3e3d5ffd5b505050506040513d601f19601f8201168201806040525081019061032c9190610ca4565b935093509350935084831115610355576040516358d620b360e01b815260040160405180910390fd5b5f6103608487610ce0565b9050828110156103835760405163e811f9f560e01b815260040160405180910390fd5b5f8411801561039a57506001600160a01b03851615155b156103b5575f546103b5906001600160a01b0316868661096f565b6001546003545f8054604051634701287760e11b815260048101869052600160a01b850463ffffffff16602482015260448101939093526001600160a01b039081166064840152608483019190915260a482018590526103e860c483015290911690638e0250ee9060e4015f604051808303815f87803b158015610437575f5ffd5b505af1158015610449573d5f5f3e3d5ffd5b5050505050505050505061047c60017f9b779b17422d0df92223018b32b4d1fa46e071723d6817e2486d003becc55f0055565b565b5f6104876109e7565b805490915060ff600160401b820416159067ffffffffffffffff165f811580156104ae5750825b90505f8267ffffffffffffffff1660011480156104ca5750303b155b9050811580156104d8575080155b156104f65760405163f92ee8a960e01b815260040160405180910390fd5b845467ffffffffffffffff19166001178555831561052057845460ff60401b1916600160401b1785555b6001600160a01b038b166105675760405162461bcd60e51b815260206004820152600960248201526806f776e6572203078360bc1b60448201526064015b60405180910390fd5b6001600160a01b038a166105a85760405162461bcd60e51b8152602060048201526008602482015267075736463203078360c41b604482015260640161055e565b6001600160a01b0389166105ee5760405162461bcd60e51b815260206004820152600d60248201526c06d657373656e6765722030783609c1b604482015260640161055e565b8661062f5760405162461bcd60e51b8152602060048201526011602482015270064657374526563697069656e742030783607c1b604482015260640161055e565b6001600160a01b0386166106745760405162461bcd60e51b815260206004820152600c60248201526b070726f7669646572203078360a41b604482015260640161055e565b61067d8b610a11565b610685610a22565b61068d610a2a565b5f80546001600160a01b038c81166001600160a01b031992831681179093556001805463ffffffff8d16600160a01b026001600160c01b03199091168e841617179081905560038b9055600280548b841694169390931790925560405163095ea7b360e01b8152911660048201525f19602482015263095ea7b3906044016020604051808303815f875af1158015610727573d5f5f3e3d5ffd5b505050506040513d601f19601f8201168201806040525081019061074b9190610cff565b50831561079257845460ff60401b19168555604051600181527fc7f505b2f371ae2175ee4913f4499e1f2633a7b5936321eed1cdaeb6115181d29060200160405180910390a15b5050505050505050505050565b6107a7610a3a565b61047c5f610a6c565b7f9016d09d72d40fdae2fd8ceac6b6234c7706214fd39c1cd1e609a0528c199300546001600160a01b031690565b6107e6610a3a565b5f546001600160a01b039081169084160361082d5760405162461bcd60e51b81526020600482015260076024820152666e6f205553444360c81b604482015260640161055e565b6108416001600160a01b038416838361096f565b505050565b61084e610a3a565b6001600160a01b03811661087757604051631e4fbdf760e01b81525f600482015260240161055e565b61088081610a6c565b50565b61088b610a3a565b6001600160a01b0381166108d45760405162461bcd60e51b815260206004820152601060248201526f0726563697069656e74206973203078360841b604482015260640161055e565b6001600160a01b0316600355565b7f9b779b17422d0df92223018b32b4d1fa46e071723d6817e2486d003becc55f0080546001190161092657604051633ee5aeb560e01b815260040160405180910390fd5b60029055565b7fcd5ed15c6e187e77e9aee88184c21f4f2182ab5827cb3b7e07fbedcd63f033005460ff161561047c5760405163d93c066560e01b815260040160405180910390fd5b604080516001600160a01b038416602482015260448082018490528251808303909101815260649091019091526020810180516001600160e01b031663a9059cbb60e01b179052610841908490610adc565b60017f9b779b17422d0df92223018b32b4d1fa46e071723d6817e2486d003becc55f0055565b5f807ff0c57e16840df040f15088dc2f81fe391c3923bec73e23a9662efc9c229c6a005b92915050565b610a19610b4e565b61088081610b73565b61047c610b4e565b610a32610b4e565b61047c610b7b565b33610a436107b0565b6001600160a01b03161461047c5760405163118cdaa760e01b815233600482015260240161055e565b7f9016d09d72d40fdae2fd8ceac6b6234c7706214fd39c1cd1e609a0528c19930080546001600160a01b031981166001600160a01b03848116918217845560405192169182907f8be0079c531659141344cd1fd0a4f28419497f9722a3daafe3b4186f6b6457e0905f90a3505050565b5f5f60205f8451602086015f885af180610afb576040513d5f823e3d81fd5b50505f513d91508115610b12578060011415610b1f565b6001600160a01b0384163b155b15610b4857604051635274afe760e01b81526001600160a01b038516600482015260240161055e565b50505050565b610b56610b83565b61047c57604051631afcd79f60e31b815260040160405180910390fd5b61084e610b4e565b6109c1610b4e565b5f610b8c6109e7565b54600160401b900460ff16919050565b6001600160a01b0381168114610880575f5ffd5b5f5f5f5f5f5f60c08789031215610bc5575f5ffd5b8635610bd081610b9c565b95506020870135610be081610b9c565b94506040870135610bf081610b9c565b9350606087013563ffffffff81168114610c08575f5ffd5b92506080870135915060a0870135610c1f81610b9c565b809150509295509295509295565b5f5f5f60608486031215610c3f575f5ffd5b8335610c4a81610b9c565b92506020840135610c5a81610b9c565b929592945050506040919091013590565b5f60208284031215610c7b575f5ffd5b8135610c8681610b9c565b9392505050565b5f60208284031215610c9d575f5ffd5b5051919050565b5f5f5f5f60808587031215610cb7575f5ffd5b8451610cc281610b9c565b60208601516040870151606090970151919890975090945092505050565b81810381811115610a0b57634e487b7160e01b5f52601160045260245ffd5b5f60208284031215610d0f575f5ffd5b81518015158114610c86575f5ffdfea2646970667358221220ad9c3f68d1b16df846f2282e617b089b34a7263a7207976cad080eac7cf04fbe64736f6c634300081c0033",
  "linkReferences": {},
  "deployedLinkReferences": {},
  "immutableReferences": {},
  "inputSourceName": "project/contracts/Receiver.sol",
  "buildInfoId": "solc-0_8_28-5b5c0541b0fb87776c7e6b0973e11b2490a8b5c4"
}