{
  "_format": "hh3-artifact-1",
  "contractName": "FeeController",
  "sourceName": "contracts/FeeController.sol",
  "abi": [
    {
      "inputs": [
        {
          "internalType": "address",
          "name": "admin",
          "type": "address"
        },
        {
          "internalType": "address",
          "name": "collector",
          "type": "address"
        },
        {
          "internalType": "uint16",
          "name": "feeBps",
          "type": "uint16"
        },
        {
          "internalType": "uint256",
          "name": "minNet",
          "type": "uint256"
        },
        {
          "internalType": "uint16",
          "name": "_fastMaxFeeBps",
          "type": "uint16"
        }
      ],
      "stateMutability": "nonpayable",
      "type": "constructor"
    },
    {
      "inputs": [
        {
          "internalType": "address",
          "name": "owner",
          "type": "address"
        }
      ],
      "name": "OwnableInvalidOwner",
      "type": "error"
    },
    {
      "inputs": [
        {
          "internalType": "address",
          "name": "account",
          "type": "address"
        }
      ],
      "name": "OwnableUnauthorizedAccount",
      "type": "error"
    },
    {
      "anonymous": false,
      "inputs": [
        {
          "indexed": true,
          "internalType": "address",
          "name": "previousOwner",
          "type": "address"
        },
        {
          "indexed": true,
          "internalType": "address",
          "name": "newOwner",
          "type": "address"
        }
      ],
      "name": "OwnershipTransferred",
      "type": "event"
    },
    {
      "inputs": [
        {
          "internalType": "address",
          "name": "fluvia",
          "type": "address"
        }
      ],
      "name": "clearfluviaOverride",
      "outputs": [],
      "stateMutability": "nonpayable",
      "type": "function"
    },
    {
      "inputs": [],
      "name": "fastMaxFeeBps",
      "outputs": [
        {
          "internalType": "uint16",
          "name": "",
          "type": "uint16"
        }
      ],
      "stateMutability": "view",
      "type": "function"
    },
    {
      "inputs": [
        {
          "internalType": "address",
          "name": "fluvia",
          "type": "address"
        }
      ],
      "name": "fluviaCfg",
      "outputs": [
        {
          "internalType": "address",
          "name": "collector",
          "type": "address"
        },
        {
          "internalType": "uint16",
          "name": "feeBps",
          "type": "uint16"
        },
        {
          "internalType": "uint256",
          "name": "minNet",
          "type": "uint256"
        },
        {
          "internalType": "bool",
          "name": "set",
          "type": "bool"
        }
      ],
      "stateMutability": "view",
      "type": "function"
    },
    {
      "inputs": [],
      "name": "globalCfg",
      "outputs": [
        {
          "internalType": "address",
          "name": "collector",
          "type": "address"
        },
        {
          "internalType": "uint16",
          "name": "feeBps",
          "type": "uint16"
        },
        {
          "internalType": "uint256",
          "name": "minNet",
          "type": "uint256"
        },
        {
          "internalType": "bool",
          "name": "set",
          "type": "bool"
        }
      ],
      "stateMutability": "view",
      "type": "function"
    },
    {
      "inputs": [],
      "name": "owner",
      "outputs": [
        {
          "internalType": "address",
          "name": "",
          "type": "address"
        }
      ],
      "stateMutability": "view",
      "type": "function"
    },
    {
      "inputs": [
        {
          "internalType": "address",
          "name": "fluvia",
          "type": "address"
        },
        {
          "internalType": "uint256",
          "name": "amount",
          "type": "uint256"
        }
      ],
      "name": "quoteFee",
      "outputs": [
        {
          "internalType": "address",
          "name": "collector",
          "type": "address"
        },
        {
          "internalType": "uint256",
          "name": "fee",
          "type": "uint256"
        },
        {
          "internalType": "uint256",
          "name": "minNet",
          "type": "uint256"
        },
        {
          "internalType": "uint256",
          "name": "maxFee",
          "type": "uint256"
        }
      ],
      "stateMutability": "view",
      "type": "function"
    },
    {
      "inputs": [],
      "name": "renounceOwnership",
      "outputs": [],
      "stateMutability": "nonpayable",
      "type": "function"
    },
    {
      "inputs": [
        {
          "internalType": "address",
          "name": "fluvia",
          "type": "address"
        },
        {
          "internalType": "address",
          "name": "collector",
          "type": "address"
        },
        {
          "internalType": "uint16",
          "name": "feeBps",
          "type": "uint16"
        },
        {
          "internalType": "uint256",
          "name": "minNet",
          "type": "uint256"
        }
      ],
      "name": "setFluviaOverride",
      "outputs": [],
      "stateMutability": "nonpayable",
      "type": "function"
    },
    {
      "inputs": [
        {
          "internalType": "address",
          "name": "collector",
          "type": "address"
        },
        {
          "internalType": "uint16",
          "name": "feeBps",
          "type": "uint16"
        },
        {
          "internalType": "uint256",
          "name": "minNet",
          "type": "uint256"
        }
      ],
      "name": "setGlobal",
      "outputs": [],
      "stateMutability": "nonpayable",
      "type": "function"
    },
    {
      "inputs": [
        {
          "internalType": "uint16",
          "name": "bps",
          "type": "uint16"
        }
      ],
      "name": "setMaxFeeBps",
      "outputs": [],
      "stateMutability": "nonpayable",
      "type": "function"
    },
    {
      "inputs": [
        {
          "internalType": "address",
          "name": "newOwner",
          "type": "address"
        }
      ],
      "name": "transferOwnership",
      "outputs": [],
      "stateMutability": "nonpayable",
      "type": "function"
    }
  ],
  "bytecode": "0x608060405234801561000f575f5ffd5b50604051610af1380380610af183398101604081905261002e91610243565b846001600160a01b03811661005d57604051631e4fbdf760e01b81525f60048201526024015b60405180910390fd5b610066816100a4565b50610070856100a4565b61007b8484846100f3565b5f805461ffff909216600160a01b0261ffff60a01b199092169190911790555061029d92505050565b5f80546001600160a01b038381166001600160a01b0319831681178455604051919092169283917f8be0079c531659141344cd1fd0a4f28419497f9722a3daafe3b4186f6b6457e09190a35050565b6100fb6101e9565b6001600160a01b0383166101445760405162461bcd60e51b815260206004820152601060248201526f0636f6c6c6563746f72206973203078360841b6044820152606401610054565b6101f48261ffff1611156101835760405162461bcd60e51b81526020600482015260066024820152656270733e352560d01b6044820152606401610054565b604080516080810182526001600160a01b0390941680855261ffff90931660208501819052908401829052600160609094018490528354600160a01b9091026001600160b01b03199091169092179190911782556002556003805460ff19169091179055565b5f546001600160a01b031633146102155760405163118cdaa760e01b8152336004820152602401610054565b565b80516001600160a01b038116811461022d575f5ffd5b919050565b805161ffff8116811461022d575f5ffd5b5f5f5f5f5f60a08688031215610257575f5ffd5b61026086610217565b945061026e60208701610217565b935061027c60408701610232565b92506060860151915061029160808701610232565b90509295509295909350565b610847806102aa5f395ff3fe608060405234801561000f575f5ffd5b50600436106100a6575f3560e01c806387bd89b11161006e57806387bd89b1146101925780638da5cb5b146101a5578063a81deba1146101bf578063d75d4edb146101e6578063f2fde38b14610211578063fcc2615c14610224575f5ffd5b80632d623278146100aa578063715018a6146100ec5780637235c083146100f65780637e0cc13e1461016c578063833703f11461017f575b5f5ffd5b6100bd6100b83660046106d5565b610237565b604080516001600160a01b03909516855260208501939093529183015260608201526080015b60405180910390f35b6100f4610321565b005b61013d6101043660046106fd565b60046020525f90815260409020805460018201546002909201546001600160a01b03821692600160a01b90920461ffff16919060ff1684565b604080516001600160a01b03909516855261ffff909316602085015291830152151560608201526080016100e3565b6100f461017a36600461072e565b610334565b6100f461018d366004610776565b610463565b6100f46101a03660046107b0565b610559565b5f546040516001600160a01b0390911681526020016100e3565b5f546101d390600160a01b900461ffff1681565b60405161ffff90911681526020016100e3565b60015460025460035461013d926001600160a01b03811692600160a01b90910461ffff169160ff1684565b6100f461021f3660046106fd565b6105c1565b6100f46102323660046106fd565b6105fe565b6001600160a01b0382165f90815260046020526040812060020154819081908190819060ff16610268576001610280565b6001600160a01b0387165f9081526004602052604090205b6040805160808101825282546001600160a01b038116808352600160a01b90910461ffff166020830181905260018501549383019390935260029093015460ff1615156060820152919650909150612710906102dc90886107c9565b6102e691906107f2565b60408201515f5491955093506127109061030b90600160a01b900461ffff16866107c9565b61031591906107f2565b91505092959194509250565b61032961063f565b6103325f61066b565b565b61033c61063f565b6001600160a01b0384161580159061035c57506001600160a01b03831615155b61039a5760405162461bcd60e51b8152600401610391906020808252600490820152637a65726f60e01b604082015260600190565b60405180910390fd5b6101f48261ffff1611156103db5760405162461bcd60e51b8152602060048201526008602482015267627073203e20352560c01b6044820152606401610391565b604080516080810182526001600160a01b03948516815261ffff93841660208083019182528284019485526001606084018181529888165f908152600490925293902091518254915196166001600160b01b031990911617600160a01b9590941694909402929092178355519082015590516002909101805460ff1916911515919091179055565b61046b61063f565b6001600160a01b0383166104b45760405162461bcd60e51b815260206004820152601060248201526f0636f6c6c6563746f72206973203078360841b6044820152606401610391565b6101f48261ffff1611156104f35760405162461bcd60e51b81526020600482015260066024820152656270733e352560d01b6044820152606401610391565b604080516080810182526001600160a01b0390941680855261ffff90931660208501819052908401829052600160609094018490528354600160a01b9091026001600160b01b03199091169092179190911782556002556003805460ff19169091179055565b61056161063f565b6101f48161ffff1611156105a05760405162461bcd60e51b81526020600482015260066024820152656270733e352560d01b6044820152606401610391565b5f805461ffff909216600160a01b0261ffff60a01b19909216919091179055565b6105c961063f565b6001600160a01b0381166105f257604051631e4fbdf760e01b81525f6004820152602401610391565b6105fb8161066b565b50565b61060661063f565b6001600160a01b03165f90815260046020526040812080546001600160b01b03191681556001810191909155600201805460ff19169055565b5f546001600160a01b031633146103325760405163118cdaa760e01b8152336004820152602401610391565b5f80546001600160a01b038381166001600160a01b0319831681178455604051919092169283917f8be0079c531659141344cd1fd0a4f28419497f9722a3daafe3b4186f6b6457e09190a35050565b80356001600160a01b03811681146106d0575f5ffd5b919050565b5f5f604083850312156106e6575f5ffd5b6106ef836106ba565b946020939093013593505050565b5f6020828403121561070d575f5ffd5b610716826106ba565b9392505050565b803561ffff811681146106d0575f5ffd5b5f5f5f5f60808587031215610741575f5ffd5b61074a856106ba565b9350610758602086016106ba565b92506107666040860161071d565b9396929550929360600135925050565b5f5f5f60608486031215610788575f5ffd5b610791846106ba565b925061079f6020850161071d565b929592945050506040919091013590565b5f602082840312156107c0575f5ffd5b6107168261071d565b80820281158282048414176107ec57634e487b7160e01b5f52601160045260245ffd5b92915050565b5f8261080c57634e487b7160e01b5f52601260045260245ffd5b50049056fea26469706673582212204d3a97b0a35782dff84aa3973b509d19f4738c98b3eb6d611309c84f3abaa77264736f6c634300081c0033",
  "linkReferences": {},
  "deployedLinkReferences": {},
  "immutableReferences": {},
  "inputSourceName": "project/contracts/FeeController.sol",
  "buildInfoId": "solc-0_8_28-f23c4eb6da5d4046cbce84b8a3a99c4ebf00e77d"
}