{
  "_format": "hh3-artifact-1",
  "contractName": "FluviaFactory",
  "sourceName": "contracts/fluviaFactory.sol",
  "abi": [
    {
      "inputs": [
        {
          "internalType": "address",
          "name": "admin",
          "type": "address"
        },
        {
          "internalType": "address",
          "name": "usdc",
          "type": "address"
        },
        {
          "internalType": "address",
          "name": "cctpMessenger",
          "type": "address"
        },
        {
          "internalType": "address",
          "name": "_feeController",
          "type": "address"
        },
        {
          "internalType": "address",
          "name": "receiverImpl",
          "type": "address"
        }
      ],
      "stateMutability": "nonpayable",
      "type": "constructor"
    },
    {
      "inputs": [],
      "name": "FailedDeployment",
      "type": "error"
    },
    {
      "inputs": [
        {
          "internalType": "uint256",
          "name": "balance",
          "type": "uint256"
        },
        {
          "internalType": "uint256",
          "name": "needed",
          "type": "uint256"
        }
      ],
      "name": "InsufficientBalance",
      "type": "error"
    },
    {
      "inputs": [
        {
          "internalType": "address",
          "name": "owner",
          "type": "address"
        }
      ],
      "name": "OwnableInvalidOwner",
      "type": "error"
    },
    {
      "inputs": [
        {
          "internalType": "address",
          "name": "account",
          "type": "address"
        }
      ],
      "name": "OwnableUnauthorizedAccount",
      "type": "error"
    },
    {
      "anonymous": false,
      "inputs": [
        {
          "indexed": true,
          "internalType": "address",
          "name": "previousOwner",
          "type": "address"
        },
        {
          "indexed": true,
          "internalType": "address",
          "name": "newOwner",
          "type": "address"
        }
      ],
      "name": "OwnershipTransferred",
      "type": "event"
    },
    {
      "inputs": [],
      "name": "TOKEN_MESSENGER",
      "outputs": [
        {
          "internalType": "address",
          "name": "",
          "type": "address"
        }
      ],
      "stateMutability": "view",
      "type": "function"
    },
    {
      "inputs": [],
      "name": "USDC",
      "outputs": [
        {
          "internalType": "address",
          "name": "",
          "type": "address"
        }
      ],
      "stateMutability": "view",
      "type": "function"
    },
    {
      "inputs": [
        {
          "internalType": "address",
          "name": "fluviaOwner",
          "type": "address"
        },
        {
          "internalType": "uint256",
          "name": "index",
          "type": "uint256"
        }
      ],
      "name": "computeAddressForIndex",
      "outputs": [
        {
          "internalType": "address",
          "name": "",
          "type": "address"
        }
      ],
      "stateMutability": "view",
      "type": "function"
    },
    {
      "inputs": [
        {
          "internalType": "address",
          "name": "fluviaOwner",
          "type": "address"
        }
      ],
      "name": "computeAddressForNext",
      "outputs": [
        {
          "internalType": "address",
          "name": "predicted",
          "type": "address"
        },
        {
          "internalType": "uint256",
          "name": "index",
          "type": "uint256"
        }
      ],
      "stateMutability": "view",
      "type": "function"
    },
    {
      "inputs": [
        {
          "internalType": "address",
          "name": "fluviaOwner",
          "type": "address"
        },
        {
          "internalType": "uint32",
          "name": "destDomain",
          "type": "uint32"
        },
        {
          "internalType": "address",
          "name": "destRecipient",
          "type": "address"
        }
      ],
      "name": "deploy",
      "outputs": [
        {
          "internalType": "address",
          "name": "receiver",
          "type": "address"
        },
        {
          "internalType": "uint256",
          "name": "index",
          "type": "uint256"
        }
      ],
      "stateMutability": "nonpayable",
      "type": "function"
    },
    {
      "inputs": [],
      "name": "feeController",
      "outputs": [
        {
          "internalType": "address",
          "name": "",
          "type": "address"
        }
      ],
      "stateMutability": "view",
      "type": "function"
    },
    {
      "inputs": [],
      "name": "implementation",
      "outputs": [
        {
          "internalType": "address",
          "name": "",
          "type": "address"
        }
      ],
      "stateMutability": "view",
      "type": "function"
    },
    {
      "inputs": [],
      "name": "owner",
      "outputs": [
        {
          "internalType": "address",
          "name": "",
          "type": "address"
        }
      ],
      "stateMutability": "view",
      "type": "function"
    },
    {
      "inputs": [
        {
          "internalType": "address",
          "name": "fluviaOwner",
          "type": "address"
        },
        {
          "internalType": "uint256",
          "name": "index",
          "type": "uint256"
        }
      ],
      "name": "receiverAt",
      "outputs": [
        {
          "internalType": "address",
          "name": "",
          "type": "address"
        }
      ],
      "stateMutability": "view",
      "type": "function"
    },
    {
      "inputs": [
        {
          "internalType": "address",
          "name": "fluviaOwner",
          "type": "address"
        }
      ],
      "name": "receiverCount",
      "outputs": [
        {
          "internalType": "uint256",
          "name": "",
          "type": "uint256"
        }
      ],
      "stateMutability": "view",
      "type": "function"
    },
    {
      "inputs": [],
      "name": "renounceOwnership",
      "outputs": [],
      "stateMutability": "nonpayable",
      "type": "function"
    },
    {
      "inputs": [
        {
          "internalType": "address",
          "name": "controller",
          "type": "address"
        }
      ],
      "name": "setFeeController",
      "outputs": [],
      "stateMutability": "nonpayable",
      "type": "function"
    },
    {
      "inputs": [
        {
          "internalType": "address",
          "name": "_impl",
          "type": "address"
        }
      ],
      "name": "setImplementation",
      "outputs": [],
      "stateMutability": "nonpayable",
      "type": "function"
    },
    {
      "inputs": [
        {
          "internalType": "address",
          "name": "newOwner",
          "type": "address"
        }
      ],
      "name": "transferOwnership",
      "outputs": [],
      "stateMutability": "nonpayable",
      "type": "function"
    }
  ],
  "bytecode": "0x60c060405234801561000f575f5ffd5b50604051610bfd380380610bfd83398101604081905261002e9161027a565b846001600160a01b03811661005d57604051631e4fbdf760e01b81525f60048201526024015b60405180910390fd5b61006681610210565b506001600160a01b0385166100ac5760405162461bcd60e51b815260206004820152600c60248201526b061646d696e206973203078360a41b6044820152606401610054565b6001600160a01b0384166100f05760405162461bcd60e51b815260206004820152600b60248201526a075736463206973203078360ac1b6044820152606401610054565b6001600160a01b0383166101395760405162461bcd60e51b815260206004820152601060248201526f06d657373656e676572206973203078360841b6044820152606401610054565b6001600160a01b03821661018f5760405162461bcd60e51b815260206004820152601460248201527f666565436f6e74726f6c6c6572206973203078300000000000000000000000006044820152606401610054565b6001600160a01b0381166101d35760405162461bcd60e51b815260206004820152600b60248201526a0696d706c206973203078360ac1b6044820152606401610054565b6001600160a01b0393841660805291831660a052600180549184166001600160a01b031992831617905560028054929093169116179055506102db565b5f80546001600160a01b038381166001600160a01b0319831681178455604051919092169283917f8be0079c531659141344cd1fd0a4f28419497f9722a3daafe3b4186f6b6457e09190a35050565b80516001600160a01b0381168114610275575f5ffd5b919050565b5f5f5f5f5f60a0868803121561028e575f5ffd5b6102978661025f565b94506102a56020870161025f565b93506102b36040870161025f565b92506102c16060870161025f565b91506102cf6080870161025f565b90509295509295909350565b60805160a0516108f361030a5f395f8181610213015261044501525f8181610180015261041d01526108f35ff3fe608060405234801561000f575f5ffd5b50600436106100e5575f3560e01c8063a14359b911610088578063b8b32ff711610063578063b8b32ff71461020e578063d1b6b6a714610235578063d784d42614610248578063f2fde38b1461025b575f5ffd5b8063a14359b9146101b2578063a894fa19146101c5578063ae3810ab146101d8575f5ffd5b80636999b377116100c35780636999b37714610160578063715018a61461017357806389a302711461017b5780638da5cb5b146101a2575f5ffd5b80633ed4c678146100e95780635c60da1b146100fe57806367644a5c1461012e575b5f5ffd5b6100fc6100f736600461081e565b61026e565b005b600254610111906001600160a01b031681565b6040516001600160a01b0390911681526020015b60405180910390f35b61014161013c366004610837565b6102e7565b604080516001600160a01b039093168352602083019190915201610125565b600154610111906001600160a01b031681565b6100fc61050b565b6101117f000000000000000000000000000000000000000000000000000000000000000081565b5f546001600160a01b0316610111565b6101116101c0366004610881565b61051e565b6101116101d3366004610881565b610562565b6102006101e636600461081e565b6001600160a01b03165f9081526003602052604090205490565b604051908152602001610125565b6101117f000000000000000000000000000000000000000000000000000000000000000081565b61014161024336600461081e565b61060c565b6100fc61025636600461081e565b610635565b6100fc61026936600461081e565b6106a3565b6102766106e0565b6001600160a01b0381166102c55760405162461bcd60e51b81526020600482015260116024820152700636f6e74726f6c6c65722069732030783607c1b60448201526064015b60405180910390fd5b600180546001600160a01b0319166001600160a01b0392909216919091179055565b5f806001600160a01b03851661032f5760405162461bcd60e51b815260206004820152600d60248201526c0666c757669612069732030783609c1b60448201526064016102bc565b6001600160a01b0383166103785760405162461bcd60e51b815260206004820152601060248201526f0726563697069656e74206973203078360841b60448201526064016102bc565b506001600160a01b0384165f9081526003602090815260408083205490516bffffffffffffffffffffffff19606089901b169281019290925260348201819052919060540160408051601f1981840301815291905280516020909101206002549091506103ee906001600160a01b03168261070c565b92505f6001600160a01b038516600154604051635cc663bf60e01b81526001600160a01b038a811660048301527f0000000000000000000000000000000000000000000000000000000000000000811660248301527f00000000000000000000000000000000000000000000000000000000000000008116604483015263ffffffff8a1660648301526084820184905291821660a4820152919250851690635cc663bf9060c4015f604051808303815f87803b1580156104ac575f5ffd5b505af11580156104be573d5f5f3e3d5ffd5b505050506001600160a01b039687165f9081526003602090815260408220805460018101825590835291200180546001600160a01b03191697851697909717909655509094909350915050565b6105136106e0565b61051c5f61071f565b565b6001600160a01b0382165f908152600360205260408120805483908110610547576105476108a9565b5f918252602090912001546001600160a01b03169392505050565b60408051606093841b6bffffffffffffffffffffffff1916602080830191909152603480830194909452825180830390940184526054820192839052835193019290922060025430608c8501526f5af43d82803e903d91602b57fd5bf3ff60788501526001600160a01b039081166068850152733d602d80600a3d3981f3363d3d373d3d3d363d7390925260ac83015260379282019290922060cc82015260556097909101201690565b6001600160a01b0381165f9081526003602052604081205461062e8382610562565b9150915091565b61063d6106e0565b6001600160a01b0381166106815760405162461bcd60e51b815260206004820152600b60248201526a0696d706c206973203078360ac1b60448201526064016102bc565b600280546001600160a01b0319166001600160a01b0392909216919091179055565b6106ab6106e0565b6001600160a01b0381166106d457604051631e4fbdf760e01b81525f60048201526024016102bc565b6106dd8161071f565b50565b5f546001600160a01b0316331461051c5760405163118cdaa760e01b81523360048201526024016102bc565b5f61071883835f61076e565b9392505050565b5f80546001600160a01b038381166001600160a01b0319831681178455604051919092169283917f8be0079c531659141344cd1fd0a4f28419497f9722a3daafe3b4186f6b6457e09190a35050565b5f814710156107995760405163cf47918160e01b8152476004820152602481018390526044016102bc565b763d602d80600a3d3981f3363d3d373d3d3d363d730000008460601b60e81c175f526e5af43d82803e903d91602b57fd5bf38460781b17602052826037600984f590506001600160a01b0381166107185760405163b06ebf3d60e01b815260040160405180910390fd5b80356001600160a01b0381168114610819575f5ffd5b919050565b5f6020828403121561082e575f5ffd5b61071882610803565b5f5f5f60608486031215610849575f5ffd5b61085284610803565b9250602084013563ffffffff8116811461086a575f5ffd5b915061087860408501610803565b90509250925092565b5f5f60408385031215610892575f5ffd5b61089b83610803565b946020939093013593505050565b634e487b7160e01b5f52603260045260245ffdfea2646970667358221220d02f74ed3e9db8dfc3128d12fab9e3e45b4643cd7f3226e7f8b83d415e43b1a764736f6c634300081c0033",
  "linkReferences": {},
  "deployedLinkReferences": {},
  "immutableReferences": {
    "2478": [
      {
        "length": 32,
        "start": 384
      },
      {
        "length": 32,
        "start": 1053
      }
    ],
    "2480": [
      {
        "length": 32,
        "start": 531
      },
      {
        "length": 32,
        "start": 1093
      }
    ]
  },
  "inputSourceName": "project/contracts/fluviaFactory.sol",
  "buildInfoId": "solc-0_8_28-0ee30f719fb49061a4b74305763f69ee29951235"
}