{
  "_format": "hh3-artifact-1",
  "contractName": "FluviaFactory",
  "sourceName": "contracts/FluviaFactory.sol",
  "abi": [
    {
      "inputs": [],
      "name": "FailedDeployment",
      "type": "error"
    },
    {
      "inputs": [
        {
          "internalType": "uint256",
          "name": "balance",
          "type": "uint256"
        },
        {
          "internalType": "uint256",
          "name": "needed",
          "type": "uint256"
        }
      ],
      "name": "InsufficientBalance",
      "type": "error"
    },
    {
      "inputs": [],
      "name": "InvalidInitialization",
      "type": "error"
    },
    {
      "inputs": [],
      "name": "NotInitializing",
      "type": "error"
    },
    {
      "inputs": [
        {
          "internalType": "address",
          "name": "owner",
          "type": "address"
        }
      ],
      "name": "OwnableInvalidOwner",
      "type": "error"
    },
    {
      "inputs": [
        {
          "internalType": "address",
          "name": "account",
          "type": "address"
        }
      ],
      "name": "OwnableUnauthorizedAccount",
      "type": "error"
    },
    {
      "anonymous": false,
      "inputs": [
        {
          "indexed": true,
          "internalType": "address",
          "name": "oldController",
          "type": "address"
        },
        {
          "indexed": true,
          "internalType": "address",
          "name": "newController",
          "type": "address"
        }
      ],
      "name": "FeeControllerUpdated",
      "type": "event"
    },
    {
      "anonymous": false,
      "inputs": [
        {
          "indexed": true,
          "internalType": "address",
          "name": "oldImpl",
          "type": "address"
        },
        {
          "indexed": true,
          "internalType": "address",
          "name": "newImpl",
          "type": "address"
        }
      ],
      "name": "ImplementationUpdated",
      "type": "event"
    },
    {
      "anonymous": false,
      "inputs": [
        {
          "indexed": false,
          "internalType": "uint64",
          "name": "version",
          "type": "uint64"
        }
      ],
      "name": "Initialized",
      "type": "event"
    },
    {
      "anonymous": false,
      "inputs": [
        {
          "indexed": true,
          "internalType": "address",
          "name": "previousOwner",
          "type": "address"
        },
        {
          "indexed": true,
          "internalType": "address",
          "name": "newOwner",
          "type": "address"
        }
      ],
      "name": "OwnershipTransferred",
      "type": "event"
    },
    {
      "anonymous": false,
      "inputs": [
        {
          "indexed": true,
          "internalType": "address",
          "name": "owner",
          "type": "address"
        },
        {
          "indexed": true,
          "internalType": "address",
          "name": "receiver",
          "type": "address"
        },
        {
          "indexed": false,
          "internalType": "uint256",
          "name": "index",
          "type": "uint256"
        },
        {
          "indexed": false,
          "internalType": "uint32",
          "name": "destDomain",
          "type": "uint32"
        }
      ],
      "name": "ReceiverDeployed",
      "type": "event"
    },
    {
      "inputs": [],
      "name": "TOKEN_MESSENGER",
      "outputs": [
        {
          "internalType": "address",
          "name": "",
          "type": "address"
        }
      ],
      "stateMutability": "view",
      "type": "function"
    },
    {
      "inputs": [],
      "name": "USDC",
      "outputs": [
        {
          "internalType": "address",
          "name": "",
          "type": "address"
        }
      ],
      "stateMutability": "view",
      "type": "function"
    },
    {
      "inputs": [
        {
          "internalType": "address",
          "name": "fluviaOwner",
          "type": "address"
        },
        {
          "internalType": "uint256",
          "name": "index",
          "type": "uint256"
        }
      ],
      "name": "computeAddressForIndex",
      "outputs": [
        {
          "internalType": "address",
          "name": "",
          "type": "address"
        }
      ],
      "stateMutability": "view",
      "type": "function"
    },
    {
      "inputs": [
        {
          "internalType": "address",
          "name": "fluviaOwner",
          "type": "address"
        }
      ],
      "name": "computeAddressForNext",
      "outputs": [
        {
          "internalType": "address",
          "name": "predicted",
          "type": "address"
        },
        {
          "internalType": "uint256",
          "name": "index",
          "type": "uint256"
        }
      ],
      "stateMutability": "view",
      "type": "function"
    },
    {
      "inputs": [
        {
          "internalType": "address",
          "name": "fluviaOwner",
          "type": "address"
        },
        {
          "internalType": "uint32",
          "name": "destDomain",
          "type": "uint32"
        },
        {
          "internalType": "address",
          "name": "destRecipient",
          "type": "address"
        }
      ],
      "name": "deploy",
      "outputs": [
        {
          "internalType": "address",
          "name": "receiver",
          "type": "address"
        },
        {
          "internalType": "uint256",
          "name": "index",
          "type": "uint256"
        }
      ],
      "stateMutability": "nonpayable",
      "type": "function"
    },
    {
      "inputs": [],
      "name": "feeController",
      "outputs": [
        {
          "internalType": "address",
          "name": "",
          "type": "address"
        }
      ],
      "stateMutability": "view",
      "type": "function"
    },
    {
      "inputs": [],
      "name": "implementation",
      "outputs": [
        {
          "internalType": "address",
          "name": "",
          "type": "address"
        }
      ],
      "stateMutability": "view",
      "type": "function"
    },
    {
      "inputs": [
        {
          "internalType": "address",
          "name": "admin",
          "type": "address"
        },
        {
          "internalType": "address",
          "name": "usdc",
          "type": "address"
        },
        {
          "internalType": "address",
          "name": "cctpMessenger",
          "type": "address"
        },
        {
          "internalType": "address",
          "name": "_feeController",
          "type": "address"
        },
        {
          "internalType": "address",
          "name": "receiverImpl",
          "type": "address"
        }
      ],
      "name": "init",
      "outputs": [],
      "stateMutability": "nonpayable",
      "type": "function"
    },
    {
      "inputs": [],
      "name": "owner",
      "outputs": [
        {
          "internalType": "address",
          "name": "",
          "type": "address"
        }
      ],
      "stateMutability": "view",
      "type": "function"
    },
    {
      "inputs": [
        {
          "internalType": "address",
          "name": "fluviaOwner",
          "type": "address"
        },
        {
          "internalType": "uint256",
          "name": "index",
          "type": "uint256"
        }
      ],
      "name": "receiverAt",
      "outputs": [
        {
          "internalType": "address",
          "name": "",
          "type": "address"
        }
      ],
      "stateMutability": "view",
      "type": "function"
    },
    {
      "inputs": [
        {
          "internalType": "address",
          "name": "fluviaOwner",
          "type": "address"
        }
      ],
      "name": "receiverCount",
      "outputs": [
        {
          "internalType": "uint256",
          "name": "",
          "type": "uint256"
        }
      ],
      "stateMutability": "view",
      "type": "function"
    },
    {
      "inputs": [],
      "name": "renounceOwnership",
      "outputs": [],
      "stateMutability": "nonpayable",
      "type": "function"
    },
    {
      "inputs": [
        {
          "internalType": "address",
          "name": "controller",
          "type": "address"
        }
      ],
      "name": "setFeeController",
      "outputs": [],
      "stateMutability": "nonpayable",
      "type": "function"
    },
    {
      "inputs": [
        {
          "internalType": "address",
          "name": "_impl",
          "type": "address"
        }
      ],
      "name": "setImplementation",
      "outputs": [],
      "stateMutability": "nonpayable",
      "type": "function"
    },
    {
      "inputs": [
        {
          "internalType": "address",
          "name": "newOwner",
          "type": "address"
        }
      ],
      "name": "transferOwnership",
      "outputs": [],
      "stateMutability": "nonpayable",
      "type": "function"
    }
  ],
  "bytecode": "0x6080604052348015600e575f5ffd5b50610e118061001c5f395ff3fe608060405234801561000f575f5ffd5b50600436106100f0575f3560e01c80638da5cb5b11610093578063b8b32ff711610063578063b8b32ff714610237578063d1b6b6a71461024a578063d784d4261461025d578063f2fde38b14610270575f5ffd5b80638da5cb5b146101ab578063a14359b9146101db578063a894fa19146101ee578063ae3810ab14610201575f5ffd5b806367644a5c116100ce57806367644a5c1461014c5780636999b3771461017e578063715018a61461019157806389a3027114610199575f5ffd5b8063359ef75b146100f45780633ed4c678146101095780635c60da1b1461011c575b5f5ffd5b610107610102366004610cdb565b610283565b005b610107610117366004610d3c565b610546565b60035461012f906001600160a01b031681565b6040516001600160a01b0390911681526020015b60405180910390f35b61015f61015a366004610d55565b6105e9565b604080516001600160a01b039093168352602083019190915201610143565b60025461012f906001600160a01b031681565b6101076108c8565b5f5461012f906001600160a01b031681565b7f9016d09d72d40fdae2fd8ceac6b6234c7706214fd39c1cd1e609a0528c199300546001600160a01b031661012f565b61012f6101e9366004610d9f565b6108db565b61012f6101fc366004610d9f565b61091f565b61022961020f366004610d3c565b6001600160a01b03165f9081526004602052604090205490565b604051908152602001610143565b60015461012f906001600160a01b031681565b61015f610258366004610d3c565b610983565b61010761026b366004610d3c565b6109ac565b61010761027e366004610d3c565b610a49565b7ff0c57e16840df040f15088dc2f81fe391c3923bec73e23a9662efc9c229c6a008054600160401b810460ff16159067ffffffffffffffff165f811580156102c85750825b90505f8267ffffffffffffffff1660011480156102e45750303b155b9050811580156102f2575080155b156103105760405163f92ee8a960e01b815260040160405180910390fd5b845467ffffffffffffffff19166001178555831561033a57845460ff60401b1916600160401b1785555b6001600160a01b038a166103845760405162461bcd60e51b815260206004820152600c60248201526b061646d696e206973203078360a41b60448201526064015b60405180910390fd5b6001600160a01b0389166103c85760405162461bcd60e51b815260206004820152600b60248201526a075736463206973203078360ac1b604482015260640161037b565b6001600160a01b0388166104115760405162461bcd60e51b815260206004820152601060248201526f06d657373656e676572206973203078360841b604482015260640161037b565b6001600160a01b03871661045e5760405162461bcd60e51b81526020600482015260146024820152730666565436f6e74726f6c6c6572206973203078360641b604482015260640161037b565b6001600160a01b0386166104a25760405162461bcd60e51b815260206004820152600b60248201526a0696d706c206973203078360ac1b604482015260640161037b565b6104ab8a610a86565b5f80546001600160a01b03808c166001600160a01b031992831617909255600180548b8416908316179055600280548a84169083161790556003805492891692909116919091179055831561053a57845460ff60401b19168555604051600181527fc7f505b2f371ae2175ee4913f4499e1f2633a7b5936321eed1cdaeb6115181d29060200160405180910390a15b50505050505050505050565b61054e610a97565b6001600160a01b0381166105985760405162461bcd60e51b81526020600482015260116024820152700636f6e74726f6c6c65722069732030783607c1b604482015260640161037b565b600280546001600160a01b038381166001600160a01b0319831681179093556040519116919082907f7e68652a0c587783e92a04abfe196d3265a14d40871971ac7903c9878f60745e905f90a35050565b5f806001600160a01b0385166106315760405162461bcd60e51b815260206004820152600d60248201526c0666c757669612069732030783609c1b604482015260640161037b565b6001600160a01b03831661067a5760405162461bcd60e51b815260206004820152601060248201526f0726563697069656e74206973203078360841b604482015260640161037b565b506001600160a01b0384165f9081526004602090815260408083205490516bffffffffffffffffffffffff19606089901b169281019290925260348201819052919060540160408051601f1981840301815291905280516020909101206003549091506001600160a01b03163b6107265760405162461bcd60e51b815260206004820152601060248201526f696d706c20686173206e6f20636f646560801b604482015260640161037b565b6003545f9061073f906001600160a01b03168330610af2565b90506001600160a01b0381163b156107905760405162461bcd60e51b8152602060048201526014602482015273636c6f6e6520616c72656164792065786973747360601b604482015260640161037b565b6003546107a6906001600160a01b031683610b57565b93505f6001600160a01b0386165f54600154600254604051635cc663bf60e01b81526001600160a01b038d811660048301529384166024820152918316604483015263ffffffff8b16606483015260848201849052821660a4820152919250861690635cc663bf9060c4015f604051808303815f87803b158015610828575f5ffd5b505af115801561083a573d5f5f3e3d5ffd5b505050506001600160a01b038881165f81815260046020908152604080832080546001810182559084529282902090920180546001600160a01b031916948a169485179055815188815263ffffffff8c16918101919091527fc7bbf30099d558f3ed6b4bd0e62bd6448a865265d60cca0d05b8b25353f1747e910160405180910390a3505050935093915050565b6108d0610a97565b6108d95f610b6a565b565b6001600160a01b0382165f90815260046020526040812080548390811061090457610904610dc7565b5f918252602090912001546001600160a01b03169392505050565b6040516bffffffffffffffffffffffff19606084901b166020820152603481018290525f90819060540160408051601f19818403018152919052805160209091012060035490915061097b906001600160a01b03168230610af2565b949350505050565b6001600160a01b0381165f908152600460205260408120546109a5838261091f565b9150915091565b6109b4610a97565b6001600160a01b0381166109f85760405162461bcd60e51b815260206004820152600b60248201526a0696d706c206973203078360ac1b604482015260640161037b565b600380546001600160a01b038381166001600160a01b0319831681179093556040519116919082907faa3f731066a578e5f39b4215468d826cdd15373cbc0dfc9cb9bdc649718ef7da905f90a35050565b610a51610a97565b6001600160a01b038116610a7a57604051631e4fbdf760e01b81525f600482015260240161037b565b610a8381610b6a565b50565b610a8e610bda565b610a8381610c23565b33610ac97f9016d09d72d40fdae2fd8ceac6b6234c7706214fd39c1cd1e609a0528c199300546001600160a01b031690565b6001600160a01b0316146108d95760405163118cdaa760e01b815233600482015260240161037b565b60405160388101919091526f5af43d82803e903d91602b57fd5bf3ff60248201526014810192909252733d602d80600a3d3981f3363d3d373d3d3d363d73825260588201526037600c820120607882015260556043909101206001600160a01b031690565b5f610b6383835f610c2b565b9392505050565b7f9016d09d72d40fdae2fd8ceac6b6234c7706214fd39c1cd1e609a0528c19930080546001600160a01b031981166001600160a01b03848116918217845560405192169182907f8be0079c531659141344cd1fd0a4f28419497f9722a3daafe3b4186f6b6457e0905f90a3505050565b7ff0c57e16840df040f15088dc2f81fe391c3923bec73e23a9662efc9c229c6a0054600160401b900460ff166108d957604051631afcd79f60e31b815260040160405180910390fd5b610a51610bda565b5f81471015610c565760405163cf47918160e01b81524760048201526024810183905260440161037b565b763d602d80600a3d3981f3363d3d373d3d3d363d730000008460601b60e81c175f526e5af43d82803e903d91602b57fd5bf38460781b17602052826037600984f590506001600160a01b038116610b635760405163b06ebf3d60e01b815260040160405180910390fd5b80356001600160a01b0381168114610cd6575f5ffd5b919050565b5f5f5f5f5f60a08688031215610cef575f5ffd5b610cf886610cc0565b9450610d0660208701610cc0565b9350610d1460408701610cc0565b9250610d2260608701610cc0565b9150610d3060808701610cc0565b90509295509295909350565b5f60208284031215610d4c575f5ffd5b610b6382610cc0565b5f5f5f60608486031215610d67575f5ffd5b610d7084610cc0565b9250602084013563ffffffff81168114610d88575f5ffd5b9150610d9660408501610cc0565b90509250925092565b5f5f60408385031215610db0575f5ffd5b610db983610cc0565b946020939093013593505050565b634e487b7160e01b5f52603260045260245ffdfea26469706673582212207a429ba4582db579d1924d2f1ff19a6f9b9f17aab6c8ce8ad1429f882c89833164736f6c634300081c0033",
  "linkReferences": {},
  "deployedLinkReferences": {},
  "immutableReferences": {},
  "inputSourceName": "project/contracts/FluviaFactory.sol",
  "buildInfoId": "solc-0_8_28-ce771b735720e43785340359779db817846ee02e"
}