{
  "_format": "hh3-artifact-1",
  "contractName": "FluviaFactory",
  "sourceName": "contracts/fluviaFactory.sol",
  "abi": [
    {
      "inputs": [],
      "name": "FailedDeployment",
      "type": "error"
    },
    {
      "inputs": [
        {
          "internalType": "uint256",
          "name": "balance",
          "type": "uint256"
        },
        {
          "internalType": "uint256",
          "name": "needed",
          "type": "uint256"
        }
      ],
      "name": "InsufficientBalance",
      "type": "error"
    },
    {
      "inputs": [],
      "name": "InvalidInitialization",
      "type": "error"
    },
    {
      "inputs": [],
      "name": "NotInitializing",
      "type": "error"
    },
    {
      "inputs": [
        {
          "internalType": "address",
          "name": "owner",
          "type": "address"
        }
      ],
      "name": "OwnableInvalidOwner",
      "type": "error"
    },
    {
      "inputs": [
        {
          "internalType": "address",
          "name": "account",
          "type": "address"
        }
      ],
      "name": "OwnableUnauthorizedAccount",
      "type": "error"
    },
    {
      "anonymous": false,
      "inputs": [
        {
          "indexed": true,
          "internalType": "address",
          "name": "oldController",
          "type": "address"
        },
        {
          "indexed": true,
          "internalType": "address",
          "name": "newController",
          "type": "address"
        }
      ],
      "name": "FeeControllerUpdated",
      "type": "event"
    },
    {
      "anonymous": false,
      "inputs": [
        {
          "indexed": true,
          "internalType": "address",
          "name": "oldImpl",
          "type": "address"
        },
        {
          "indexed": true,
          "internalType": "address",
          "name": "newImpl",
          "type": "address"
        }
      ],
      "name": "ImplementationUpdated",
      "type": "event"
    },
    {
      "anonymous": false,
      "inputs": [
        {
          "indexed": false,
          "internalType": "uint64",
          "name": "version",
          "type": "uint64"
        }
      ],
      "name": "Initialized",
      "type": "event"
    },
    {
      "anonymous": false,
      "inputs": [
        {
          "indexed": true,
          "internalType": "address",
          "name": "previousOwner",
          "type": "address"
        },
        {
          "indexed": true,
          "internalType": "address",
          "name": "newOwner",
          "type": "address"
        }
      ],
      "name": "OwnershipTransferred",
      "type": "event"
    },
    {
      "anonymous": false,
      "inputs": [
        {
          "indexed": true,
          "internalType": "address",
          "name": "owner",
          "type": "address"
        },
        {
          "indexed": true,
          "internalType": "address",
          "name": "receiver",
          "type": "address"
        },
        {
          "indexed": false,
          "internalType": "uint256",
          "name": "index",
          "type": "uint256"
        },
        {
          "indexed": false,
          "internalType": "uint32",
          "name": "destDomain",
          "type": "uint32"
        }
      ],
      "name": "ReceiverDeployed",
      "type": "event"
    },
    {
      "inputs": [],
      "name": "LOCAL_DOMAIN",
      "outputs": [
        {
          "internalType": "uint32",
          "name": "",
          "type": "uint32"
        }
      ],
      "stateMutability": "view",
      "type": "function"
    },
    {
      "inputs": [],
      "name": "TOKEN_MESSENGER",
      "outputs": [
        {
          "internalType": "address",
          "name": "",
          "type": "address"
        }
      ],
      "stateMutability": "view",
      "type": "function"
    },
    {
      "inputs": [],
      "name": "USDC",
      "outputs": [
        {
          "internalType": "address",
          "name": "",
          "type": "address"
        }
      ],
      "stateMutability": "view",
      "type": "function"
    },
    {
      "inputs": [
        {
          "internalType": "address",
          "name": "fluviaOwner",
          "type": "address"
        },
        {
          "internalType": "uint256",
          "name": "index",
          "type": "uint256"
        }
      ],
      "name": "computeAddressForIndex",
      "outputs": [
        {
          "internalType": "address",
          "name": "",
          "type": "address"
        }
      ],
      "stateMutability": "view",
      "type": "function"
    },
    {
      "inputs": [
        {
          "internalType": "address",
          "name": "fluviaOwner",
          "type": "address"
        }
      ],
      "name": "computeAddressForNext",
      "outputs": [
        {
          "internalType": "address",
          "name": "predicted",
          "type": "address"
        },
        {
          "internalType": "uint256",
          "name": "index",
          "type": "uint256"
        }
      ],
      "stateMutability": "view",
      "type": "function"
    },
    {
      "inputs": [
        {
          "internalType": "address",
          "name": "fluviaOwner",
          "type": "address"
        },
        {
          "internalType": "uint32",
          "name": "destDomain",
          "type": "uint32"
        },
        {
          "internalType": "address",
          "name": "destRecipient",
          "type": "address"
        }
      ],
      "name": "deploy",
      "outputs": [
        {
          "internalType": "address",
          "name": "receiver",
          "type": "address"
        },
        {
          "internalType": "uint256",
          "name": "index",
          "type": "uint256"
        }
      ],
      "stateMutability": "nonpayable",
      "type": "function"
    },
    {
      "inputs": [],
      "name": "feeController",
      "outputs": [
        {
          "internalType": "address",
          "name": "",
          "type": "address"
        }
      ],
      "stateMutability": "view",
      "type": "function"
    },
    {
      "inputs": [],
      "name": "implementation",
      "outputs": [
        {
          "internalType": "address",
          "name": "",
          "type": "address"
        }
      ],
      "stateMutability": "view",
      "type": "function"
    },
    {
      "inputs": [
        {
          "internalType": "address",
          "name": "admin",
          "type": "address"
        },
        {
          "internalType": "address",
          "name": "usdc",
          "type": "address"
        },
        {
          "internalType": "address",
          "name": "cctpMessenger",
          "type": "address"
        },
        {
          "internalType": "address",
          "name": "_feeController",
          "type": "address"
        },
        {
          "internalType": "address",
          "name": "receiverImpl",
          "type": "address"
        },
        {
          "internalType": "uint32",
          "name": "localDomain",
          "type": "uint32"
        }
      ],
      "name": "init",
      "outputs": [],
      "stateMutability": "nonpayable",
      "type": "function"
    },
    {
      "inputs": [],
      "name": "owner",
      "outputs": [
        {
          "internalType": "address",
          "name": "",
          "type": "address"
        }
      ],
      "stateMutability": "view",
      "type": "function"
    },
    {
      "inputs": [
        {
          "internalType": "address",
          "name": "fluviaOwner",
          "type": "address"
        },
        {
          "internalType": "uint256",
          "name": "index",
          "type": "uint256"
        }
      ],
      "name": "receiverAt",
      "outputs": [
        {
          "internalType": "address",
          "name": "",
          "type": "address"
        }
      ],
      "stateMutability": "view",
      "type": "function"
    },
    {
      "inputs": [
        {
          "internalType": "address",
          "name": "fluviaOwner",
          "type": "address"
        }
      ],
      "name": "receiverCount",
      "outputs": [
        {
          "internalType": "uint256",
          "name": "",
          "type": "uint256"
        }
      ],
      "stateMutability": "view",
      "type": "function"
    },
    {
      "inputs": [],
      "name": "renounceOwnership",
      "outputs": [],
      "stateMutability": "nonpayable",
      "type": "function"
    },
    {
      "inputs": [
        {
          "internalType": "address",
          "name": "controller",
          "type": "address"
        }
      ],
      "name": "setFeeController",
      "outputs": [],
      "stateMutability": "nonpayable",
      "type": "function"
    },
    {
      "inputs": [
        {
          "internalType": "address",
          "name": "_impl",
          "type": "address"
        }
      ],
      "name": "setImplementation",
      "outputs": [],
      "stateMutability": "nonpayable",
      "type": "function"
    },
    {
      "inputs": [
        {
          "internalType": "address",
          "name": "newOwner",
          "type": "address"
        }
      ],
      "name": "transferOwnership",
      "outputs": [],
      "stateMutability": "nonpayable",
      "type": "function"
    }
  ],
  "bytecode": "0x6080604052348015600e575f5ffd5b50610e898061001c5f395ff3fe608060405234801561000f575f5ffd5b50600436106100fb575f3560e01c80638da5cb5b11610093578063b8b32ff711610063578063b8b32ff71461026e578063d1b6b6a714610281578063d784d42614610294578063f2fde38b146102a7575f5ffd5b80638da5cb5b146101e2578063a14359b914610212578063a894fa1914610225578063ae3810ab14610238575f5ffd5b806367644a5c116100ce57806367644a5c146101835780636999b377146101b5578063715018a6146101c857806389a30271146101d0575f5ffd5b8063144dd0cc146100ff5780633ed4c678146101305780634beaa69a146101455780635c60da1b14610158575b5f5ffd5b60015461011690600160a01b900463ffffffff1681565b60405163ffffffff90911681526020015b60405180910390f35b61014361013e366004610d3b565b6102ba565b005b610143610153366004610d67565b610362565b60035461016b906001600160a01b031681565b6040516001600160a01b039091168152602001610127565b610196610191366004610dd7565b610638565b604080516001600160a01b039093168352602083019190915201610127565b60025461016b906001600160a01b031681565b610143610928565b5f5461016b906001600160a01b031681565b7f9016d09d72d40fdae2fd8ceac6b6234c7706214fd39c1cd1e609a0528c199300546001600160a01b031661016b565b61016b610220366004610e17565b61093b565b61016b610233366004610e17565b61097f565b610260610246366004610d3b565b6001600160a01b03165f9081526004602052604090205490565b604051908152602001610127565b60015461016b906001600160a01b031681565b61019661028f366004610d3b565b6109e3565b6101436102a2366004610d3b565b610a0c565b6101436102b5366004610d3b565b610aa9565b6102c2610ae6565b6001600160a01b0381166103115760405162461bcd60e51b81526020600482015260116024820152700636f6e74726f6c6c65722069732030783607c1b60448201526064015b60405180910390fd5b600280546001600160a01b038381166001600160a01b0319831681179093556040519116919082907f7e68652a0c587783e92a04abfe196d3265a14d40871971ac7903c9878f60745e905f90a35050565b7ff0c57e16840df040f15088dc2f81fe391c3923bec73e23a9662efc9c229c6a008054600160401b810460ff16159067ffffffffffffffff165f811580156103a75750825b90505f8267ffffffffffffffff1660011480156103c35750303b155b9050811580156103d1575080155b156103ef5760405163f92ee8a960e01b815260040160405180910390fd5b845467ffffffffffffffff19166001178555831561041957845460ff60401b1916600160401b1785555b6001600160a01b038b1661045e5760405162461bcd60e51b815260206004820152600c60248201526b061646d696e206973203078360a41b6044820152606401610308565b6001600160a01b038a166104a25760405162461bcd60e51b815260206004820152600b60248201526a075736463206973203078360ac1b6044820152606401610308565b6001600160a01b0389166104eb5760405162461bcd60e51b815260206004820152601060248201526f06d657373656e676572206973203078360841b6044820152606401610308565b6001600160a01b0388166105385760405162461bcd60e51b81526020600482015260146024820152730666565436f6e74726f6c6c6572206973203078360641b6044820152606401610308565b6001600160a01b03871661057c5760405162461bcd60e51b815260206004820152600b60248201526a0696d706c206973203078360ac1b6044820152606401610308565b6105858b610b41565b5f80546001600160a01b03808d166001600160a01b0319928316179092556001805463ffffffff8a16600160a01b026001600160c01b03199091168d851617179055600280548b841690831617905560038054928a1692909116919091179055831561062b57845460ff60401b19168555604051600181527fc7f505b2f371ae2175ee4913f4499e1f2633a7b5936321eed1cdaeb6115181d29060200160405180910390a15b5050505050505050505050565b5f806001600160a01b0385166106805760405162461bcd60e51b815260206004820152600d60248201526c0666c757669612069732030783609c1b6044820152606401610308565b6001600160a01b0383166106c95760405162461bcd60e51b815260206004820152601060248201526f0726563697069656e74206973203078360841b6044820152606401610308565b506001600160a01b0384165f9081526004602090815260408083205490516bffffffffffffffffffffffff19606089901b169281019290925260348201819052919060540160408051601f1981840301815291905280516020909101206003549091506001600160a01b03163b6107755760405162461bcd60e51b815260206004820152601060248201526f696d706c20686173206e6f20636f646560801b6044820152606401610308565b6003545f9061078e906001600160a01b03168330610b52565b90506001600160a01b0381163b156107df5760405162461bcd60e51b8152602060048201526014602482015273636c6f6e6520616c72656164792065786973747360601b6044820152606401610308565b6003546107f5906001600160a01b031683610bb7565b93505f6001600160a01b0386165f5460015460025460405163e1f5eab760e01b81526001600160a01b038d811660048301529384166024820152838316604482015263ffffffff8c81166064830152600160a01b909304909216608483015260a48201849052821660c482015291925086169063e1f5eab79060e4015f604051808303815f87803b158015610888575f5ffd5b505af115801561089a573d5f5f3e3d5ffd5b505050506001600160a01b038881165f81815260046020908152604080832080546001810182559084529282902090920180546001600160a01b031916948a169485179055815188815263ffffffff8c16918101919091527fc7bbf30099d558f3ed6b4bd0e62bd6448a865265d60cca0d05b8b25353f1747e910160405180910390a3505050935093915050565b610930610ae6565b6109395f610bca565b565b6001600160a01b0382165f90815260046020526040812080548390811061096457610964610e3f565b5f918252602090912001546001600160a01b03169392505050565b6040516bffffffffffffffffffffffff19606084901b166020820152603481018290525f90819060540160408051601f1981840301815291905280516020909101206003549091506109db906001600160a01b03168230610b52565b949350505050565b6001600160a01b0381165f90815260046020526040812054610a05838261097f565b9150915091565b610a14610ae6565b6001600160a01b038116610a585760405162461bcd60e51b815260206004820152600b60248201526a0696d706c206973203078360ac1b6044820152606401610308565b600380546001600160a01b038381166001600160a01b0319831681179093556040519116919082907faa3f731066a578e5f39b4215468d826cdd15373cbc0dfc9cb9bdc649718ef7da905f90a35050565b610ab1610ae6565b6001600160a01b038116610ada57604051631e4fbdf760e01b81525f6004820152602401610308565b610ae381610bca565b50565b33610b187f9016d09d72d40fdae2fd8ceac6b6234c7706214fd39c1cd1e609a0528c199300546001600160a01b031690565b6001600160a01b0316146109395760405163118cdaa760e01b8152336004820152602401610308565b610b49610c3a565b610ae381610c83565b60405160388101919091526f5af43d82803e903d91602b57fd5bf3ff60248201526014810192909252733d602d80600a3d3981f3363d3d373d3d3d363d73825260588201526037600c820120607882015260556043909101206001600160a01b031690565b5f610bc383835f610c8b565b9392505050565b7f9016d09d72d40fdae2fd8ceac6b6234c7706214fd39c1cd1e609a0528c19930080546001600160a01b031981166001600160a01b03848116918217845560405192169182907f8be0079c531659141344cd1fd0a4f28419497f9722a3daafe3b4186f6b6457e0905f90a3505050565b7ff0c57e16840df040f15088dc2f81fe391c3923bec73e23a9662efc9c229c6a0054600160401b900460ff1661093957604051631afcd79f60e31b815260040160405180910390fd5b610ab1610c3a565b5f81471015610cb65760405163cf47918160e01b815247600482015260248101839052604401610308565b763d602d80600a3d3981f3363d3d373d3d3d363d730000008460601b60e81c175f526e5af43d82803e903d91602b57fd5bf38460781b17602052826037600984f590506001600160a01b038116610bc35760405163b06ebf3d60e01b815260040160405180910390fd5b80356001600160a01b0381168114610d36575f5ffd5b919050565b5f60208284031215610d4b575f5ffd5b610bc382610d20565b803563ffffffff81168114610d36575f5ffd5b5f5f5f5f5f5f60c08789031215610d7c575f5ffd5b610d8587610d20565b9550610d9360208801610d20565b9450610da160408801610d20565b9350610daf60608801610d20565b9250610dbd60808801610d20565b9150610dcb60a08801610d54565b90509295509295509295565b5f5f5f60608486031215610de9575f5ffd5b610df284610d20565b9250610e0060208501610d54565b9150610e0e60408501610d20565b90509250925092565b5f5f60408385031215610e28575f5ffd5b610e3183610d20565b946020939093013593505050565b634e487b7160e01b5f52603260045260245ffdfea264697066735822122071b93aba1649e7a4fdfe74eb6bfd3c6ed0fd8cdcfb65273f1bba8036371c9c0064736f6c634300081c0033",
  "linkReferences": {},
  "deployedLinkReferences": {},
  "immutableReferences": {},
  "inputSourceName": "project/contracts/fluviaFactory.sol",
  "buildInfoId": "solc-0_8_28-30bfbff2c834930e1e3023ed78748bdd224ff79a"
}