{
  "_format": "hh3-artifact-1",
  "contractName": "Receiver",
  "sourceName": "contracts/Receiver.sol",
  "abi": [
    {
      "inputs": [],
      "name": "EnforcedPause",
      "type": "error"
    },
    {
      "inputs": [],
      "name": "ExpectedPause",
      "type": "error"
    },
    {
      "inputs": [],
      "name": "InvalidFee",
      "type": "error"
    },
    {
      "inputs": [],
      "name": "InvalidInitialization",
      "type": "error"
    },
    {
      "inputs": [],
      "name": "NetTooSmall",
      "type": "error"
    },
    {
      "inputs": [],
      "name": "NotInitializing",
      "type": "error"
    },
    {
      "inputs": [],
      "name": "NothingToSettle",
      "type": "error"
    },
    {
      "inputs": [
        {
          "internalType": "address",
          "name": "owner",
          "type": "address"
        }
      ],
      "name": "OwnableInvalidOwner",
      "type": "error"
    },
    {
      "inputs": [
        {
          "internalType": "address",
          "name": "account",
          "type": "address"
        }
      ],
      "name": "OwnableUnauthorizedAccount",
      "type": "error"
    },
    {
      "inputs": [],
      "name": "ReentrancyGuardReentrantCall",
      "type": "error"
    },
    {
      "inputs": [
        {
          "internalType": "address",
          "name": "token",
          "type": "address"
        }
      ],
      "name": "SafeERC20FailedOperation",
      "type": "error"
    },
    {
      "anonymous": false,
      "inputs": [
        {
          "indexed": false,
          "internalType": "uint64",
          "name": "version",
          "type": "uint64"
        }
      ],
      "name": "Initialized",
      "type": "event"
    },
    {
      "anonymous": false,
      "inputs": [
        {
          "indexed": true,
          "internalType": "address",
          "name": "previousOwner",
          "type": "address"
        },
        {
          "indexed": true,
          "internalType": "address",
          "name": "newOwner",
          "type": "address"
        }
      ],
      "name": "OwnershipTransferred",
      "type": "event"
    },
    {
      "anonymous": false,
      "inputs": [
        {
          "indexed": false,
          "internalType": "address",
          "name": "account",
          "type": "address"
        }
      ],
      "name": "Paused",
      "type": "event"
    },
    {
      "anonymous": false,
      "inputs": [
        {
          "indexed": false,
          "internalType": "address",
          "name": "account",
          "type": "address"
        }
      ],
      "name": "Unpaused",
      "type": "event"
    },
    {
      "inputs": [],
      "name": "USDC",
      "outputs": [
        {
          "internalType": "contract IERC20",
          "name": "",
          "type": "address"
        }
      ],
      "stateMutability": "view",
      "type": "function"
    },
    {
      "inputs": [],
      "name": "destDomain",
      "outputs": [
        {
          "internalType": "uint32",
          "name": "",
          "type": "uint32"
        }
      ],
      "stateMutability": "view",
      "type": "function"
    },
    {
      "inputs": [],
      "name": "destRecipient",
      "outputs": [
        {
          "internalType": "bytes32",
          "name": "",
          "type": "bytes32"
        }
      ],
      "stateMutability": "view",
      "type": "function"
    },
    {
      "inputs": [],
      "name": "feeController",
      "outputs": [
        {
          "internalType": "contract IFeeController",
          "name": "",
          "type": "address"
        }
      ],
      "stateMutability": "view",
      "type": "function"
    },
    {
      "inputs": [
        {
          "internalType": "address",
          "name": "owner_",
          "type": "address"
        },
        {
          "internalType": "address",
          "name": "usdc",
          "type": "address"
        },
        {
          "internalType": "address",
          "name": "cctpMessenger",
          "type": "address"
        },
        {
          "internalType": "uint32",
          "name": "_destDomain",
          "type": "uint32"
        },
        {
          "internalType": "uint32",
          "name": "_localDomain",
          "type": "uint32"
        },
        {
          "internalType": "bytes32",
          "name": "_destRecipient",
          "type": "bytes32"
        },
        {
          "internalType": "address",
          "name": "_feeController",
          "type": "address"
        }
      ],
      "name": "initialize",
      "outputs": [],
      "stateMutability": "nonpayable",
      "type": "function"
    },
    {
      "inputs": [],
      "name": "localDomain",
      "outputs": [
        {
          "internalType": "uint32",
          "name": "",
          "type": "uint32"
        }
      ],
      "stateMutability": "view",
      "type": "function"
    },
    {
      "inputs": [],
      "name": "owner",
      "outputs": [
        {
          "internalType": "address",
          "name": "",
          "type": "address"
        }
      ],
      "stateMutability": "view",
      "type": "function"
    },
    {
      "inputs": [],
      "name": "paused",
      "outputs": [
        {
          "internalType": "bool",
          "name": "",
          "type": "bool"
        }
      ],
      "stateMutability": "view",
      "type": "function"
    },
    {
      "inputs": [],
      "name": "renounceOwnership",
      "outputs": [],
      "stateMutability": "nonpayable",
      "type": "function"
    },
    {
      "inputs": [
        {
          "internalType": "address",
          "name": "token",
          "type": "address"
        },
        {
          "internalType": "address",
          "name": "to",
          "type": "address"
        },
        {
          "internalType": "uint256",
          "name": "amt",
          "type": "uint256"
        }
      ],
      "name": "rescueToken",
      "outputs": [],
      "stateMutability": "nonpayable",
      "type": "function"
    },
    {
      "inputs": [
        {
          "internalType": "address",
          "name": "newRecipient",
          "type": "address"
        }
      ],
      "name": "setDestRecipientAddress",
      "outputs": [],
      "stateMutability": "nonpayable",
      "type": "function"
    },
    {
      "inputs": [],
      "name": "settle",
      "outputs": [],
      "stateMutability": "nonpayable",
      "type": "function"
    },
    {
      "inputs": [],
      "name": "tokenMessenger",
      "outputs": [
        {
          "internalType": "contract ITokenMessenger",
          "name": "",
          "type": "address"
        }
      ],
      "stateMutability": "view",
      "type": "function"
    },
    {
      "inputs": [
        {
          "internalType": "address",
          "name": "newOwner",
          "type": "address"
        }
      ],
      "name": "transferOwnership",
      "outputs": [],
      "stateMutability": "nonpayable",
      "type": "function"
    }
  ],
  "bytecode": "0x6080604052348015600e575f5ffd5b50610e948061001c5f395ff3fe608060405234801561000f575f5ffd5b50600436106100e5575f3560e01c806389a3027111610088578063e1f5eab711610063578063e1f5eab7146101e7578063e5711e8b146101fa578063f2fde38b1461020d578063f590fb5c14610220575f5ffd5b806389a30271146101b65780638d3638f4146101c85780638da5cb5b146101df575f5ffd5b80635c975abb116100c35780635c975abb1461014f5780636999b37714610184578063715018a614610197578063747819a31461019f575f5ffd5b806311da60b4146100e957806321021ee9146100f35780634611783014610124575b5f5ffd5b6100f1610233565b005b60015461010a90600160a01b900463ffffffff1681565b60405163ffffffff90911681526020015b60405180910390f35b600154610137906001600160a01b031681565b6040516001600160a01b03909116815260200161011b565b7fcd5ed15c6e187e77e9aee88184c21f4f2182ab5827cb3b7e07fbedcd63f033005460ff16604051901515815260200161011b565b600254610137906001600160a01b031681565b6100f16104f8565b6101a860035481565b60405190815260200161011b565b5f54610137906001600160a01b031681565b60015461010a90600160c01b900463ffffffff1681565b610137610509565b6100f16101f5366004610ce9565b610537565b6100f1610208366004610d6d565b6108ff565b6100f161021b366004610dab565b610967565b6100f161022e366004610dab565b6109a4565b61023b610a03565b610243610a4d565b5f80546040516370a0823160e01b81523060048201526001600160a01b03909116906370a0823190602401602060405180830381865afa158015610289573d5f5f3e3d5ffd5b505050506040513d601f19601f820116820180604052508101906102ad9190610dcd565b9050805f036102cf57604051630c30209d60e31b815260040160405180910390fd5b6002545f908190819081906001600160a01b0316632d6232786102f0610509565b6040516001600160e01b031960e084901b1681526001600160a01b03909116600482015260248101889052604401608060405180830381865afa158015610339573d5f5f3e3d5ffd5b505050506040513d601f19601f8201168201806040525081019061035d9190610de4565b935093509350935084831115610386576040516358d620b360e01b815260040160405180910390fd5b5f6103918487610e20565b9050828110156103b45760405163e811f9f560e01b815260040160405180910390fd5b5f841180156103cb57506001600160a01b03851615155b156103e6575f546103e6906001600160a01b03168686610a90565b60015463ffffffff600160c01b82048116600160a01b909204160361042e5761042361041160035490565b5f546001600160a01b03169083610a90565b5050505050506104cd565b6001546003545f8054604051634701287760e11b815260048101869052600160a01b850463ffffffff16602482015260448101939093526001600160a01b039081166064840152608483019190915260a482018590526103e860c483015290911690638e0250ee9060e4015f604051808303815f87803b1580156104b0575f5ffd5b505af11580156104c2573d5f5f3e3d5ffd5b505050505050505050505b6104f660017f9b779b17422d0df92223018b32b4d1fa46e071723d6817e2486d003becc55f0055565b565b610500610b08565b6104f65f610b3a565b7f9016d09d72d40fdae2fd8ceac6b6234c7706214fd39c1cd1e609a0528c199300546001600160a01b031690565b5f610540610baa565b805490915060ff600160401b820416159067ffffffffffffffff165f811580156105675750825b90505f8267ffffffffffffffff1660011480156105835750303b155b905081158015610591575080155b156105af5760405163f92ee8a960e01b815260040160405180910390fd5b845467ffffffffffffffff1916600117855583156105d957845460ff60401b1916600160401b1785555b6001600160a01b038c166106205760405162461bcd60e51b815260206004820152600960248201526806f776e6572203078360bc1b60448201526064015b60405180910390fd5b6001600160a01b038b166106615760405162461bcd60e51b8152602060048201526008602482015267075736463203078360c41b6044820152606401610617565b6001600160a01b038a166106a75760405162461bcd60e51b815260206004820152600d60248201526c06d657373656e6765722030783609c1b6044820152606401610617565b866106e85760405162461bcd60e51b8152602060048201526011602482015270064657374526563697069656e742030783607c1b6044820152606401610617565b6001600160a01b03861661072d5760405162461bcd60e51b815260206004820152600c60248201526b070726f7669646572203078360a41b6044820152606401610617565b6107368c610bd4565b61073e610be5565b610746610bed565b8a5f5f6101000a8154816001600160a01b0302191690836001600160a01b031602179055508960015f6101000a8154816001600160a01b0302191690836001600160a01b0316021790555088600160146101000a81548163ffffffff021916908363ffffffff16021790555087600160186101000a81548163ffffffff021916908363ffffffff160217905550866003819055508560025f6101000a8154816001600160a01b0302191690836001600160a01b031602179055505f5f9054906101000a90046001600160a01b03166001600160a01b031663095ea7b360015f9054906101000a90046001600160a01b03165f196040518363ffffffff1660e01b815260040161086a9291906001600160a01b03929092168252602082015260400190565b6020604051808303815f875af1158015610886573d5f5f3e3d5ffd5b505050506040513d601f19601f820116820180604052508101906108aa9190610e3f565b5083156108f157845460ff60401b19168555604051600181527fc7f505b2f371ae2175ee4913f4499e1f2633a7b5936321eed1cdaeb6115181d29060200160405180910390a15b505050505050505050505050565b610907610b08565b5f546001600160a01b039081169084160361094e5760405162461bcd60e51b81526020600482015260076024820152666e6f205553444360c81b6044820152606401610617565b6109626001600160a01b0384168383610a90565b505050565b61096f610b08565b6001600160a01b03811661099857604051631e4fbdf760e01b81525f6004820152602401610617565b6109a181610b3a565b50565b6109ac610b08565b6001600160a01b0381166109f55760405162461bcd60e51b815260206004820152601060248201526f0726563697069656e74206973203078360841b6044820152606401610617565b6001600160a01b0316600355565b7f9b779b17422d0df92223018b32b4d1fa46e071723d6817e2486d003becc55f00805460011901610a4757604051633ee5aeb560e01b815260040160405180910390fd5b60029055565b7fcd5ed15c6e187e77e9aee88184c21f4f2182ab5827cb3b7e07fbedcd63f033005460ff16156104f65760405163d93c066560e01b815260040160405180910390fd5b604080516001600160a01b038416602482015260448082018490528251808303909101815260649091019091526020810180516001600160e01b031663a9059cbb60e01b179052610962908490610bfd565b60017f9b779b17422d0df92223018b32b4d1fa46e071723d6817e2486d003becc55f0055565b33610b11610509565b6001600160a01b0316146104f65760405163118cdaa760e01b8152336004820152602401610617565b7f9016d09d72d40fdae2fd8ceac6b6234c7706214fd39c1cd1e609a0528c19930080546001600160a01b031981166001600160a01b03848116918217845560405192169182907f8be0079c531659141344cd1fd0a4f28419497f9722a3daafe3b4186f6b6457e0905f90a3505050565b5f807ff0c57e16840df040f15088dc2f81fe391c3923bec73e23a9662efc9c229c6a005b92915050565b610bdc610c6f565b6109a181610c94565b6104f6610c6f565b610bf5610c6f565b6104f6610c9c565b5f5f60205f8451602086015f885af180610c1c576040513d5f823e3d81fd5b50505f513d91508115610c33578060011415610c40565b6001600160a01b0384163b155b15610c6957604051635274afe760e01b81526001600160a01b0385166004820152602401610617565b50505050565b610c77610ca4565b6104f657604051631afcd79f60e31b815260040160405180910390fd5b61096f610c6f565b610ae2610c6f565b5f610cad610baa565b54600160401b900460ff16919050565b6001600160a01b03811681146109a1575f5ffd5b803563ffffffff81168114610ce4575f5ffd5b919050565b5f5f5f5f5f5f5f60e0888a031215610cff575f5ffd5b8735610d0a81610cbd565b96506020880135610d1a81610cbd565b95506040880135610d2a81610cbd565b9450610d3860608901610cd1565b9350610d4660808901610cd1565b925060a0880135915060c0880135610d5d81610cbd565b8091505092959891949750929550565b5f5f5f60608486031215610d7f575f5ffd5b8335610d8a81610cbd565b92506020840135610d9a81610cbd565b929592945050506040919091013590565b5f60208284031215610dbb575f5ffd5b8135610dc681610cbd565b9392505050565b5f60208284031215610ddd575f5ffd5b5051919050565b5f5f5f5f60808587031215610df7575f5ffd5b8451610e0281610cbd565b60208601516040870151606090970151919890975090945092505050565b81810381811115610bce57634e487b7160e01b5f52601160045260245ffd5b5f60208284031215610e4f575f5ffd5b81518015158114610dc6575f5ffdfea2646970667358221220f3a3886665a4919c80c00a84c40f216a3eecb2d52010d413e84a30097c3acb3764736f6c634300081c0033",
  "linkReferences": {},
  "deployedLinkReferences": {},
  "immutableReferences": {},
  "inputSourceName": "project/contracts/Receiver.sol",
  "buildInfoId": "solc-0_8_28-39ce40fa969bd436c0e4aa86821e657f9269246a"
}